:100000000C942A000C9447000C9447000C94470071
:100010000C9447000C9447000C94C1060C944700C4
:100020000C9447000C9447000C942C060C94030687
:100030000C9447000C9447000C9447000C94470024
:100040000C9447000C9447000C9447000C94470014
:100050000C94470011241FBECFE5D8E0DEBFCDBF12
:1000600011E0A0E6B0E0E8E4F6E102C005900D92F0
:10007000AE36B107D9F711E0AEE6B1E001C01D928E
:10008000A937B107E1F70E947C0A0C94220B0C946B
:100090000000EF92FF920F931F937B018C0120E0F1
:1000A00030E040E05FE40E94CB0288238CF0C8017E
:1000B000B70120E030E040E05FE40E94C1010E940F
:1000C000FB029B01AC01205030404040504806C02C
:1000D000C801B7010E94FB029B01AC01B901CA0132
:1000E0001F910F91FF90EF900895A0E0B0E0EBE733
:1000F000F0E00C94EB0ADC012B01FA019C919230A8
:1001000008F439C1EB018881823008F433C194309E
:1001100069F4843009F02FC111969C91119789815F
:10012000981709F428C1A0E6B0E025C1843009F48D
:1001300021C18230A9F4923009F01DC19A01AD01AC
:1001400088E0EA010990AE01E90109929E0181501F
:10015000C1F7E201898111969C918923818308C1AD
:10016000923009F407C112962D903C901397EB0141
:100170008A819B811496AD90BD90CD90DC901797AD
:10018000EC80FD800E811F819101281B390BB90184
:1001900037FF04C066277727621B730B6032710537
:1001A0000CF061C0121613066CF537014801062EDB
:1001B00004C096948794779467940A94D2F721E0C8
:1001C00030E040E050E004C0220F331F441F551FB1
:1001D0006A95D2F721503040404050402E213F21B7
:1001E00040235123211531054105510521F021E01E
:1001F00030E040E050E079018A01E628F72808293C
:1002000019293CC0232BD1F1260E371E350146019A
:10021000062E04C096948794779467940A94D2F734
:1002200021E030E040E050E004C0220F331F441FC3
:10023000551F6A95D2F721503040404050402A2146
:100240003B214C215D21211531054105510521F04E
:1002500021E030E040E050E059016A01A628B728CB
:10026000C828D9280BC0821593052CF01C01AA249C
:10027000BB24650103C0EE24FF24870111969C91E5
:10028000D20111968C91981709F445C0992339F041
:10029000A80197012A193B094C095D0906C0A6016E
:1002A00095012E193F09400B510B57FD08C01182D3
:1002B0003382228224833583468357831DC081E0A5
:1002C00081833382228288279927DC01821B930B4A
:1002D000A40BB50B84839583A683B7830DC0220F2F
:1002E000331F441F551F24833583468357838281E0
:1002F000938101979383828324813581468157813D
:10030000DA01C9010197A109B1098F5F9F4FAF4F72
:10031000BF4328F30BC0918333822282EA0CFB1C7B
:100320000C1D1D1DE482F5820683178383E0808304
:10033000248135814681578157FF1AC0C901AA27F8
:1003400097FDA095BA2F81709070A070B0705695EF
:10035000479537952795822B932BA42BB52B848318
:100360009583A683B7838281938101969383828349
:10037000DF0101C0D201CD01CDB7DEB7E2E10C94BF
:10038000070BA0E2B0E0E7ECF1E00C94F70A698318
:100390007A838B839C832D833E834F835887E9E048
:1003A000EE2EF12CEC0EFD1ECE010196B7010E943F
:1003B000EC048E010F5E1F4FCE010596B8010E941E
:1003C000EC048A8991E089278A8BC701B801AE01C4
:1003D000475E5F4F0E9475000E941704A096E6E0FA
:1003E0000C94130BA0E2B0E0E8EFF1E00C94F70AF4
:1003F00069837A838B839C832D833E834F835887C5
:10040000F9E0EF2EF12CEC0EFD1ECE010196B701A6
:100410000E94EC048E010F5E1F4FCE010596B801BD
:100420000E94EC04C701B801AE01475E5F4F0E9415
:1004300075000E941704A096E6E00C94130BA8E147
:10044000B0E0E5E2F2E00C94F30A69837A838B83EF
:100450009C832D833E834F835887B9E0EB2EF12C8C
:10046000EC0EFD1ECE010196B7010E94EC048E0138
:100470000F5E1F4FCE010596B8010E94EC0429853E
:10048000223008F47EC03989323010F4B8017CC0C3
:100490008A859A8989278A87243011F0223031F49D
:1004A000231709F06EC060E670E06EC0343039F496
:1004B0001D861E861F86188A1C861B8604C0323045
:1004C00021F484E08987B7015FC02B853C858B8947
:1004D0009C89281B390B3C872B87ED84FE840F8574
:1004E0001889AD88BE88CF88D88CEA14FB040C0527
:1004F0001D0540F4EE0CFF1C001F111F2150304061
:100500003C872B8720E030E040E050E080E090E046
:10051000A0E0B0E460E070E0EA14FB040C051D0507
:1005200040F0282B392B4A2B5B2BEA18FB080C09CF
:100530001D09B695A79597958795EE0CFF1C001F92
:10054000111F6F5F7F4F6F31710531F7DA01C901FC
:100550008F779070A070B07080349105A105B105BF
:1005600061F427FD0AC0E114F1040105110529F029
:10057000205C3F4F4F4F5F4F20782D873E874F873E
:10058000588BBE01675F7F4FCB010E9417046896AE
:10059000EAE00C940F0BA8E1B0E0E1EDF2E00C947E
:1005A000F70A69837A838B839C832D833E834F83F1
:1005B000588789E0E82EF12CEC0EFD1ECE01019645
:1005C000B7010E94EC048E010F5E1F4FCE0105960D
:1005D000B8010E94EC048985823040F0898982301C
:1005E00028F0C701B8010E94640501C08FEF68962A
:1005F000E6E00C94130BACE0B0E0E1E0F3E00C9427
:10060000FB0A69837A838B839C83CE010196BE01AA
:100610006B5F7F4F0E94EC048D81823061F18230EC
:1006200050F1843021F48E81882351F12EC02F8126
:10063000388537FD20C06E812F3131051CF06623CF
:10064000F9F023C08EE190E0821B930B29853A8557
:100650004B855C8504C056954795379527958A95B7
:10066000D2F76623B1F050954095309521953F4FD4
:100670004F4F5F4F0EC020E030E040E050E009C037
:100680002FEF3FEF4FEF5FE704C020E030E040E0A6
:1006900050E8B901CA012C96E2E00C94170BA8E0CF
:1006A000B0E0E5E5F3E00C94F30A7B018C01611501
:1006B00071058105910519F482E0898360C083E0AA
:1006C00089838EE1C82ED12CDC82CB82ED82FE8222
:1006D0000F831887C801B7010E94C803FC01319736
:1006E000F7FF3BC0222733272E1B3F0B5701680122
:1006F000022E04C0D694C794B794A7940A94D2F754
:1007000040E050E060E070E081E090E0A0E0B0E028
:1007100004C0880F991FAA1FBB1F2A95D2F7019703
:10072000A109B1098E219F21A023B1230097A10522
:10073000B10521F041E050E060E070E04A295B291A
:100740006C297D294D835E836F8378878EE190E0ED
:100750008E1B9F0B9C838B8312C0309781F00E2ED3
:1007600004C0EE0CFF1C001F111F0A94D2F7ED828B
:10077000FE820F831887CE1ADF0ADC82CB821A82B0
:10078000CE0101960E9417042896EAE00C940F0B04
:10079000EF92FF920F931F937B018C0180E0E8168C
:1007A00080E0F80681E0080780E0180788F48FEF02
:1007B000E816F1040105110531F028F088E090E019
:1007C000A0E0B0E017C080E090E0A0E0B0E012C090
:1007D00080E0E81680E0F80680E0080781E018076E
:1007E00028F088E190E0A0E0B0E004C080E190E073
:1007F000A0E0B0E020E230E040E050E0281B390B00
:100800004A0B5B0B04C016950795F794E7948A95FD
:10081000D2F7F701E859FF4F8081281B31094109C0
:100820005109C9011F910F91FF90EF900895DF9238
:10083000EF92FF920F931F93FC01E480F5800681F5
:100840001781D1808081823048F480E090E0A0E17F
:10085000B0E0E82AF92A0A2B1B2BA5C0843009F442
:100860009FC0823021F4EE24FF24870105C0E114EB
:10087000F1040105110519F4E0E0F0E096C0628191
:1008800073819FEF623879070CF05BC022E83FEF7D
:10089000261B370B2A3131052CF020E030E040E0F8
:1008A00050E02AC0B801A701022E04C076956795D2
:1008B000579547950A94D2F781E090E0A0E0B0E028
:1008C00004C0880F991FAA1FBB1F2A95D2F7019752
:1008D000A109B1098E219F21A023B1230097A10571
:1008E000B10521F081E090E0A0E0B0E09A01AB0119
:1008F000282B392B4A2B5B2BDA01C9018F7790709B
:10090000A070B07080349105A105B10539F427FFBE
:1009100009C0205C3F4F4F4F5F4F04C0215C3F4FE9
:100920004F4F5F4FE0E0F0E02030A0E03A07A0E05A
:100930004A07A0E45A0710F0E1E0F0E079018A01EB
:1009400027C06038710564F5FB01E158FF4FD801FD
:10095000C7018F779070A070B07080349105A105A9
:10096000B10539F4E7FE0DC080E490E0A0E0B0E00E
:1009700004C08FE390E0A0E0B0E0E80EF91E0A1F8B
:100980001B1F17FF05C016950795F794E79431963E
:1009900087E016950795F794E7948A95D1F705C0F7
:1009A000EE24FF248701EFEFF0E06E2F67956627B6
:1009B0006795902F9F77D794DD24D7948E2F8695B7
:1009C000492F462B582F5D29B701CA011F910F915E
:1009D000FF90EF90DF900895FC01DB014081518191
:1009E0002281622F6F7770E0221F2227221F9381BE
:1009F000892F880F822B282F30E0991F9927991F64
:100A000011969C93119721153105A9F541155105B2
:100A10006105710511F482E037C082E89FEF1396FB
:100A20009C938E9312979A01AB0167E0220F331FBC
:100A3000441F551F6A95D1F783E08C930DC0220F98
:100A4000331F441F551F12968D919C911397019748
:100A500013969C938E931297203080E0380780E0A5
:100A6000480780E4580758F314962D933D934D930F
:100A70005C93179708952F3F310579F4411551057F
:100A80006105710519F484E08C93089564FF03C037
:100A900081E08C9312C01C9210C02F5730401396E7
:100AA0003C932E93129783E08C9387E0440F551F5D
:100AB000661F771F8A95D1F7706414964D935D93E6
:100AC0006D937C93179708951F93DC01FB019C9114
:100AD000923008F447C08081823008F443C09430DB
:100AE00051F411961C91843099F58181682F70E042
:100AF000611B71093FC0843021F0923031F48230A3
:100B0000B9F18181882389F12DC011961C9111972B
:100B10008230F1F081811817D9F412962D913C9111
:100B20001397828193818217930794F028173907CE
:100B3000BCF014968D919D910D90BC91A02D2481B7
:100B4000358146815781281739074A075B0718F412
:100B5000112341F00AC082179307A407B50740F498
:100B6000112319F061E070E005C06FEF7FEF02C064
:100B700060E070E0CB011F9108959B01AC0182E021
:100B80008BB988E18AB986E880BD83E0220F331FE4
:100B9000441F551F8A95D1F760E072E18AE790E023
:100BA0000E94C90A2150304030BD29B908955D9B8B
:100BB000FECF8CB908955F9BFECF8CB1089520E0E5
:100BC00004C05D9BFECFECB92F5FFC01E20FF11D6D
:100BD000E081EE23B1F70895DC015F9BFECF8CB17D
:100BE0008C9390E008C09F5F5F9BFECF8CB1FD01AE
:100BF000E90FF11D8083FD01E90FF11D8081833232
:100C000091F7108208951F920F920FB60F92112440
:100C10002F933F934F935F936F937F938F939F9304
:100C2000AF93BF93EF93FF93E0916E01F0916F014B
:100C3000309709F00995FF91EF91BF91AF919F9186
:100C40008F917F916F915F914F913F912F910F9075
:100C50000FBE0F901F9018951F920F920FB60F9214
:100C600011242F933F934F935F936F937F938F93B1
:100C70009F93AF93BF93EF93FF93E0916E01F09139
:100C80006F01309709F00995FF91EF91BF91AF91F6
:100C90009F918F917F916F915F914F913F912F9194
:100CA0000F900FBE0F901F901895FC018281882332
:100CB00049F483B7806883BF83B78F7B83BF83B7D3
:100CC000877F12C0823031F483B7806883BF83B7D7
:100CD0008F7B07C0833049F483B78F7783BF83B797
:100CE000806483BF83B7886083BF8481882319F4BD
:100CF00083B78F7E04C0813031F483B7806183BFB6
:100D000083B78F7D0CC0823019F483B78F7E04C007
:100D1000833031F483B7806183BF83B7806283BF40
:100D200083B7887F9381892B83BF808182BF818134
:100D30008CBF89B7826089BF89B7816089BF0895F8
:100D400013BE12BE1CBE89B78D7F89BF89B78E7F47
:100D500089BF10926F0110926E01089590936F01F8
:100D600080936E010895982F853608F094E68FEFF2
:100D7000989FC001112464E670E00E94B50A6CBF20
:100D800008951F920F920FB60F9211242F933F9345
:100D90004F935F936F937F938F939F93AF93BF9383
:100DA000EF93FF93E0917001F0917101309709F09A
:100DB0000995FF91EF91BF91AF919F918F917F9195
:100DC0006F915F914F913F912F910F900FBE0F90B8
:100DD0001F901895FC018E988FB588608FBD8FB5D8
:100DE00084608FBD8EB5887F9081892B8EBD9EB526
:100DF00081818295880F880F807C9F7B892B8EBD97
:100E00001DBC1CBC17BC16BC89B7806289BF089585
:100E1000909371018093700108959EB58295880F1B
:100E2000880F807C9F7B982B9EBD089526B537B593
:100E3000C90108951DBC1CBC08951FBC1EBC1DBC6F
:100E40001CBC17BC16BC89B78F7D89BF109271017D
:100E5000109270010895683008F070C0843008F076
:100E60006DC0813009F1813030F08230B1F18330D2
:100E700009F064C04BC0413059F42AB381E090E0DE
:100E800002C0880F991F6A95E2F7282B2ABB0895A4
:100E90002AB381E090E002C0880F991F6A95E2F7BB
:100EA000809582238ABB0895413059F427B381E0AD
:100EB00090E002C0880F991F6A95E2F7282B27BBA4
:100EC000089527B381E090E002C0880F991F6A95CA
:100ED000E2F78095822387BB0895413059F424B30B
:100EE00081E090E002C0880F991F6A95E2F7282BF5
:100EF00024BB089524B381E090E002C0880F991FBD
:100F00006A95E2F78095822384BB0895413059F4B5
:100F100021B381E090E002C0880F991F6A95E2F743
:100F2000282B21BB089521B381E090E002C0880FF7
:100F3000991F6A95E2F78095822381BB08956830F6
:100F400008F070C0843008F06DC0813009F1813044
:100F500030F08230B1F1833009F064C04BC04423DB
:100F600061F42BB381E090E002C0880F991F6A956D
:100F7000E2F7809582238BBB08952BB381E090E04C
:100F800002C0880F991F6A95E2F7282B2BBB0895A2
:100F9000442361F428B381E090E002C0880F991FD8
:100FA0006A95E2F78095822388BB089528B381E093
:100FB00090E002C0880F991F6A95E2F7282B28BBA2
:100FC0000895442361F425B381E090E002C0880FC6
:100FD000991F6A95E2F78095822385BB089525B312
:100FE00081E090E002C0880F991F6A95E2F7282BF4
:100FF00025BB0895442361F422B381E090E002C050
:10100000880F991F6A95E2F78095822382BB089525
:1010100022B381E090E002C0880F991F6A95E2F741
:10102000282B22BB08956830D0F48430C0F481307E
:1010300049F0813028F0823039F0833081F406C0E5
:1010400089B305C086B303C083B301C080B390E009
:1010500002C0959587956A95E2F78170089580E0C2
:101060000895843080F4813049F0813028F0823056
:1010700039F0833041F406C06ABB089567BB089518
:1010800064BB089561BB0895843080F4813049F0D9
:10109000813028F0823039F0833041F406C06BBBD8
:1010A000089568BB089565BB089562BB08958430B8
:1010B00088F4813049F0813028F0823039F0833073
:1010C00049F406C089B3089586B3089583B308959B
:1010D00080B3089580E00895809172018F5F8093BE
:1010E0007201813031F40E941A0780E00E940D07DE
:1010F0000895823059F40E941607909374018093EA
:10110000730181E00E940D0710927201089581E041
:1011100065E041E00E949F0785E38A95F1F781E051
:1011200065E040E00E949F0708950E948708609153
:1011300073017091740180E090E00E944F0323E3FB
:1011400033E34BE652E40E941F020E944900CB01A8
:101150000895DF93CF9300D0CDB7DEB781E065E08F
:1011600041E00E942B0782E0898381E08A83CE01DF
:1011700001960E94EA068CE698E00E9408070F900C
:101180000F90CF91DF9108950E94B306089580E0FB
:101190000E94060980E00E94EA08089581E00E940A
:1011A000060981E00E94EA08089582E00E9406098B
:1011B00082E00E94EA08089581E00E94060982E028
:1011C0000E94EA08089582E00E94060981E00E94D8
:1011D000EA080895813031F0823069F481E066E0F8
:1011E00041E00CC081E066E040E00E949F0781E0A2
:1011F00067E041E008C081E066E040E00E949F07B0
:1012000081E067E040E00E949F070895813031F05F
:10121000823069F481E064E041E00CC081E064E088
:1012200040E00E949F0781E060E041E008C081E06B
:1012300064E040E00E949F0781E060E040E00E949F
:101240009F070895DF93CF9300D000D00F92CDB7C2
:10125000DEB7DE011196E8E6F1E085E001900D923F
:101260008150E1F7CE0101960E94550681E063E0CE
:1012700041E00E942B0781E064E041E00E942B07DF
:1012800081E060E041E00E942B0781E066E041E000
:101290000E942B0781E067E041E00E942B0781E07C
:1012A00064E040E00E949F0781E060E040E00E942F
:1012B0009F0781E066E040E00E949F0781E067E0D1
:1012C00040E00E949F0784E60E94B3060F900F90B3
:1012D0000F900F900F90CF91DF91089580E065E01F
:1012E0000E94130890E0813009F491E0892F08955D
:1012F00080E064E00E94130890E0813009F491E0FE
:10130000892F089580E064E040E00E942B0780E090
:1013100065E040E00E942B0708950E94D7050895DC
:101320000E94DB05089560E875E280E090E00E948D
:10133000BD05089580917501863451F0873418F405
:10134000823421F508C08C3449F08235F9F412C09A
:101350000E94DC0808950E94E30808950E94D508C1
:1013600088E893E128EC30E0F9013197F1F7019733
:10137000D9F708950E94CE0888E893E128EC30E080
:10138000F9013197F1F70197D9F708950E94C7083D
:101390000895FF920F931F9380917601833358F540
:1013A00082E5F82EF09275010E949A090E94950834
:1013B000082F8CE4809375010E949A090E949A0973
:1013C0000E949508182FF09275010E949A09011742
:1013D00028F0033318F0F092750110C0101720F0B8
:1013E000133310F08CE408C082E5809375010E94ED
:1013F0009A090E949A0986E4809375011F910F91C2
:10140000FF900895809175018C3481F08D3428F41B
:10141000823449F0863499F403C0823581F409C0DE
:101420000E94DC0808C00E94E30805C00E94D5089D
:1014300002C00E94CE088AE50E94C40808950E9456
:10144000C70808950E947809809377010E946E0969
:101450008093780190917701913029F4813001F5E2
:101460000E94DC080895992309F033C0813009F007
:1014700040C00E94E30880ED97E028EC30E0F901DD
:101480003197F1F70197D9F70E94D50888E893E1E1
:1014900028EC30E0F9013197F1F70197D9F729C02D
:1014A0008823C9F40E94E30880ED97E028EC30E03F
:1014B000F9013197F1F70197D9F70E94CE0888E832
:1014C00093E128EC30E0F9013197F1F70197D9F772
:1014D00010C0913071F4813061F40E94E30880EA19
:1014E0009FE028EC30E0F9013197F1F70197D9F747
:1014F00008950E94C70808951F930E9422090E9420
:1015000093090E94A9080E9482098FB780688FBF43
:101510000E9490098093750108C00E9490098093F1
:1015200075010E94020A109375011091750117351B
:10153000A1F30DC088E20E94C4080E949508809320
:1015400076010E94C9090E949A09109375011091B1
:101550007501153579F304C00E94220A10937501B4
:10156000109175011934A1F6F7CFAA1BBB1B51E1ED
:1015700007C0AA1FBB1FA617B70710F0A61BB70B03
:10158000881F991F5A95A9F780959095BC01CD01A8
:101590000895A1E21A2EAA1BBB1BFD010DC0AA1FB4
:1015A000BB1FEE1FFF1FA217B307E407F50720F0CC
:1015B000A21BB30BE40BF50B661F771F881F991F47
:1015C0001A9469F760957095809590959B01AC0190
:1015D000BD01CF0108952F923F924F925F926F927B
:1015E0007F928F929F92AF92BF92CF92DF92EF92B3
:1015F000FF920F931F93CF93DF93CDB7DEB7CA1B34
:10160000DB0B0FB6F894DEBF0FBECDBF09942A885E
:10161000398848885F846E847D848C849B84AA8406
:10162000B984C884DF80EE80FD800C811B81AA8193
:10163000B981CE0FD11D0FB6F894DEBF0FBECDBF5E
:08164000ED010895F894FFCFBD
:101648000000000000000000000102020303030381
:10165800040404040404040405050505050505053A
:10166800050505050505050506060606060606061A
:101678000606060606060606060606060606060602
:1016880006060606060606060707070707070707EA
:1016980007070707070707070707070707070707D2
:1016A80007070707070707070707070707070707C2
:1016B80007070707070707070707070707070707B2
:1016C800070707070707070708080808080808089A
:1016D8000808080808080808080808080808080882
:1016E8000808080808080808080808080808080872
:1016F8000808080808080808080808080808080862
:101708000808080808080808080808080808080851
:101718000808080808080808080808080808080841
:101728000808080808080808080808080808080831
:101738000808080808080808080808080808080821
:0E17480008080808080808080000030302004B
:00000001FF
